:100000000C943E000C9450000C9450000C94500042
:100010000C9450000C9450000C9450000C94500020
:100020000C9450000C9450000C9450000C94500010
:100030000C9450000C9450000C9450000C94500000
:100040000C9460000C9452000C947C000C945000B2
:100050000C9450000C9450000C9450000C945000E0
:100060000C9450000C9450000C9450000C945000D0
:100070000C9450000C9450000C94500011241FBE9E
:10008000CFEFD8E0DEBFCDBF21E0A0E0B1E001C0FE
:100090001D92A330B207E1F70E948D000C94AE00D0
:1000A0000C9400001F920F920FB60F9211248F93A1
:1000B0008BB11BB88F910F900FBE0F901F901895AA
:1000C0001F920F920FB60F9211248F939F939091CE
:1000D000010180910201981303C085B1809585B913
:1000E000809101018F5F809301019F918F910F900B
:1000F0000FBE0F901F9018951F920F920FB60F9280
:1001000011248F938BB18FEF8BB985B115B88F9177
:100110000F900FBE0F901F90189580E88AB98FEF4F
:1001200084B984B5836084BD85B5816085BD18BC04
:1001300010920101EEE6F0E0808187608083789480
:1001400080E088BD80930201EFE3FFE13197F1F792
:1001500000C000008F5F8F3FA1F7F2CFF894FFCF70
:00000001FF
