S01F000050726F6965637420504D202D204D69786F6C6F676973742E73726563D6
S11300000C943E000C945B000C945B000C945B001D
S11300100C945B000C945B000C945B000C945B00F0
S11300200C945B000C945D000C945B000C945B00DE
S11300300C945B000C945B000C945B000C945B00D0
S11300400C94A0000C945B000C945B000C945B007B
S11300500C945B000C945B000C945B000C945B00B0
S11300600C945B000C945B000C945B000C945B00A0
S11300700C945B000C945B000C945B0011241FBE79
S1130080CFEFD8E0DEBFCDBF11E0A0E0B1E0EAE4FD
S1130090F3E002C005900D92A230B107D9F721E038
S11300A0A2E0B1E001C01D92AC30B207E1F70E94BA
S11300B093000C94A3010C9400001F920F920FB6AE
S11300C00F9211248F939F9380910A018F5F8093E5
S11300D00A0180910A01811103C08BB18F708BB921
S11300E090910A0180910701981301C05F9A909141
S11300F00A0180910901981301C05E9A90910A0146
S113010080910801981301C05D9A90910A01809131
S11301100801981301C05C9A9F918F910F900FBEB4
S11301200F901F90189584E690E00E9467018FEF6E
S113013084B98AB915B884E690E00E947601FFCFAD
S11301401F920F920FB60F9211248F939F93809159
S113015002019091030199231CF4919581959109D1
S113016003970CF496C08091020190910301181634
S113017019060CF042C0809106018F5F809306013E
S113018080910601843011F41092060180910601D9
S1130190811105C085B1807F85B9289A7AC0809184
S11301A00601813029F485B1807F85B92A9A71C00E
S11301B080910601823029F485B1807F85B9299A1E
S11301C068C080910601833009F063C085B1807FE7
S11301D085B92B9A80910401909105010196909321
S11301E0050180930401809102019091030101971C
S11301F090930301809302014CC08091020190917D
S1130200030199230CF042C0809106018150809330
S11302100601809106018F3F19F483E08093060163
S113022080910601811105C085B1807F85B9289A26
S113023030C080910601813029F485B1807F85B971
S11302402A9A27C080910601823029F485B1807FE3
S113025085B9299A1EC0809106018330D1F485B1F5
S1130260807F85B92B9A80910401909105010197B3
S11302709093050180930401809102019091030100
S11302800196909303018093020103C085B1807F9E
S113029085B99F918F910F900FBE0F901F90189565
S11302A090E09093010180930001609100017091AE
S11302B0010128EE33E0C9010E947B01C9010E94BB
S11302C07B0189E09DE30E947B0167BD089594B59D
S11302D0926094BD95B5956095BDEEE6F0E0908191
S11302E0926090830E945001789408959093030142
S11302F080930201089597FB072E16F4009407D00B
S113030077FD09D00E948F0107FC05D03EF490953B
S113031081959F4F0895709561957F4F0895AA1B0D
S1130320BB1B51E107C0AA1FBB1FA617B70710F0DC
S1130330A61BB70B881F991F5A95A9F7809590950E
S10D0340BC01CD010895F894FFCF2D
S105034A640049
S9030000FC
