S01F000050726F6965637420504D202D204D69786F6C6F676973742E73726563D6
S11300000C943E000C945B000C945B000C945B001D
S11300100C945B000C941F050C942F050C940E0497
S11300200C945B000C945D000C945B000C945B00DE
S11300300C945B000C945B000C945B000C945B00D0
S11300400C9463040C945B000C945B000C945B00B4
S11300500C945B000C945B000C945B000C945B00B0
S11300600C945B000C945B000C945B000C945B00A0
S11300700C945B000C945B000C945B0011241FBE79
S1130080CFEFD8E0DEBFCDBF11E0A0E0B1E0EEE5F8
S1130090FBE002C005900D92A632B107D9F727E024
S11300A0A6E2B1E001C01D92AD36B207E1F70E94AD
S11300B0D4020C94AD050C9400001F920F920FB65D
S11300C00F9211248F939F93809139018F5F8093B6
S11300D0390180913901811103C088B1887F88B9C1
S11300E09091390180913601981301C0409A909102
S11300F0390180913801981301C0419A90913901D6
S113010080913701981301C0429A9F918F910F906B
S11301100FBE0F901F901895E1EBF0E08081816095
S11301208083E0EBF0E08081826080838CE78093C1
S1130130B300E0E7F0E0808182608083789487B147
S1130140876087B9089580958093360160956093A0
S1130150380140954093370108954F925F926F9212
S11301607F928F929F92AF92BF92CF92DF92EF9243
S1130170FF920F931F93E6E1F1E080809180092CB8
S1130180000CAA08BB088092CE019092CF01A092E5
S1130190D001B092D1011092CD0148EF5AE260E053
S11301A070E04093D7015093D8016093D9017093C4
S11301B0DA0181E08093D601C084D1840D2C000C37
S11301C0EE08FF08C092E001D092E101E092E20162
S11301D0F092E3011092DF014093E9015093EA01A8
S11301E06093EB017093EC018093E80108EB1BE052
S11301F020E030E00093F2011093F3012093F40126
S11302003093F5011092F10180925E0290925F02A8
S1130210A0926002B092610210925D024093670264
S1130220509368026093690270936A028093660235
S1130230C0927002D0927102E0927202F092730244
S113024010926F024093790250937A0260937B027A
S113025070937C0280937802C0928202D0928302CF
S1130260E0928402F092850292E09093810240939E
S11302708B0250938C0260938D0270938E02809354
S11302808A0200939402109395022093960230936D
S1130290970210929302A681B7812D01BB0F6608C5
S11302A077084092EE025092EF026092F002709250
S11302B0F1021092ED024093F7025093F80260931A
S11302C0F9027093FA028093F602C0920003D0926E
S11302D00103E0920203F09203031092FF024093A1
S11302E0090350930A0360930B0370930C038093E8
S11302F00803009312031093130320931403309301
S113030015031092110380927E0390927F03A092B2
S11303108003B092810310927D034093870350932E
S113032088036093890370938A0380938603C09241
S11303309003D0929103E0929203F092930310926F
S11303408F034093990350939A0360939B03709394
S11303509C0380939803C092A203D092A303E092DB
S1130360A403F092A5034093AB035093AC036093B2
S1130370AD037093AE038093AA030093B403109368
S1130380B5032093B6033093B7031092B30384806C
S11303909580092C000CAA08BB0880920E04909248
S11303A00F04A0921004B092110410920D04409313
S11303B01704509318046093190470931A048093DB
S11303C01604C284D3840D2C000CEE08FF08C092DE
S11303D02004D0922104E0922204F092230410928B
S11303E01F044093290450932A0460932B047093B0
S11303F02C04809328040093320410933304209334
S11304003404309335041092310480929E04909207
S11304109F04A092A004B092A10410929D04409362
S1130420A7045093A8046093A9047093AA0480932A
S1130430A604C092B004D092B104E092B204F09247
S1130440B3041092AF044093B9045093BA04609378
S1130450BB047093BC048093B804C092C204D092CD
S1130460C304E092C404F092C5044093CB045093B7
S1130470CC046093CD047093CE048093CA0400939B
S1130480D4041093D5042093D6043093D704109247
S1130490D30442805380052C000C660877084092F0
S11304A02E0550922F0560923005709231051092FE
S11304B02D054093370550933805609339057093A3
S11304C03A0580933605C0924005D0924105E092EA
S11304D04205F092430510923F054093490550931D
S11304E04A0560934B0570934C058093480500932F
S11304F052051093530520935405309355051092DB
S113050051058092BE059092BF05A092C005B0929D
S1130510C1051092BD054093C7055093C80560936B
S1130520C9057093CA058093C605C092D005D092C0
S1130530D105E092D205F092D3051092CF054093F5
S1130540D9055093DA056093DB057093DC0580933D
S1130550D805C092E205D092E305E092E405F0925A
S1130560E5054093EB055093EC056093ED0570931E
S1130570EE058093EA050093F4051093F5052093A6
S1130580F6053093F7051092F3051F910F91FF9034
S1130590EF90DF90CF90BF90AF909F908F907F901F
S11305A06F905F904F9008950E94440583E090E01F
S11305B00E94660588E99AE30E94780588E99AE32F
S11305C00E948B0582E090E00E946F0580E090E03D
S11305D00E94900580E090E00E94A8050E948C0093
S11305E00E9441040E94AD00579A7894FF24FA9423
S11305F000E010E0912CE12CC12CD12CC0E0D0E023
S1130600A12CB12C66246394712C0F2EF0E98F2E4B
S1130610F02D0F2EF3E02F2EF02D312C689444246E
S113062041F8512C02C0CA2DDB2D5F98112309F427
S1130630ECC0F11004C011500F5F21F40FC000236F
S113064009F4E6C0111103C00150F39410E0FF2037
S113065029F0011103C01F5FFA9400E08FE193E0D9
S11306600197F1F700C000004F2D50E0602F70E0BB
S1130670812F90E00E94A300209709F08DC0C1143F
S1130680D10459F48A2D9B2D0E948B058A2D9B2D14
S11306900E94A805C62DD72DC8CF80913B0190910B
S11306A03C01009799F40E945204882309F4BDCFB9
S11306B090E090933C0180933B01880F991FFC01CB
S11306C0E050FF4F90805F9AE12CAFCFE91409F41A
S11306D05DC02E2D30E0F901EE0FFF1FEE0FFF1F5E
S11306E0EE0FFF1FE20FF31F889EA001899E500D9D
S11306F01124E40FF51FE35CFE4F4081411119C042
S1130700F901EE0FFF1FEE0FFF1FEE0FFF1FE20FA9
S1130710F31F889EA001899E500D1124E40FF51F3C
S1130720E35CFE4F818192810E948B05C42DD52DFF
S11307302BC04130D1F4A901440F551F440F551F5C
S1130740440F551F240F351F889EF001899EF00D1C
S113075011242E0F3F1FF901E35CFE4F818192812A
S11307600E94A805C22DD32D0FC0423069F49FEF1B
S113077027EA81E6915020408040E1F700C0000064
S113078094E0C92F20E0D22FE3944FCFA0923B01F5
S1130790B0923C019E2C49CFC130D10551F45F9AEF
S11307A00E947D05811141CFC62CD72CCA2DDB2D8B
S11307B03CCFC230D10539F40E947D05811135CF7B
S11307C0CA2DDB2D32CFC330D105C1F40E9495056B
S11307D081112BCF0E94A305181619060CF023CF04
S11307E09FEF21E18AE7915020408040E1F700C06B
S11307F000008A2D9B2D0E94A80517CFC430D10577
S113080009F013CFCA2DDB2D10CF01111DCF03C06A
S1130810F11021CF23CFF1101ECF20CF1F920F92C2
S11308200FB60F9211242F933F934F935F938F939F
S11308309F9321E030E0309329012093280159B19E
S113084049B139B129B1852F817090E04270840F8C
S1130850911D3470830F911D2870820F911D909308
S11308602701809326018BB180588BB99F918F917A
S11308705F914F913F912F910F900FBE0F901F905A
S113088018958AB1807E8AB98BB18F618BB9E8E6FD
S1130890F0E0808188608083E3E7F0E0808180611C
S11308A0808308958091280190912901892B49F032
S11308B0109229011092280180912601909127011C
S11308C0089580E008951F920F920FB60F9211249D
S11308D02F933F938F939F9380913401909135018F
S11308E00196909335018093340120913401309125
S11308F0350180912401909125012817390721F4AD
S11309001092350110923401809134019091350197
S1130910892BB9F5209130013091310180912E015C
S113092090912F012817390784F4469898B180E2F2
S1130930892788B9449A80913001909131010196B8
S113094090933101809330011CC02091300130918B
S1130950310180912E0190912F018217930784F425
S1130960469898B180E2892788B9449880913001EB
S1130970909131010197909331018093300101C02E
S1130980469A8091320190913301019690933301FC
S11309908093320120913201309133018091220100
S11309A0909123012817390721F4109233011092F2
S11309B032018091320190913301892BB9F5209154
S11309C02C0130912D0180912A0190912B0128173F
S11309D0390784F42D9895B180E4892785B92F9A35
S11309E080912C0190912D01019690932D0180937B
S11309F02C011CC020912C0130912D0180912A01E1
S1130A0090912B018217930784F42D9895B180E47B
S1130A10892785B92F9880912C0190912D010197F8
S1130A2090932D0180932C0101C02D9A9F918F9159
S1130A303F912F910F900FBE0F901F9018951F920A
S1130A400F920FB60F9211241B9904C0109231011A
S1130A50109230010F900FBE0F901F9018951F92A7
S1130A600F920FB60F9211248F93379907C01092EB
S1130A702D0110922C018BB180588BB98F910F905E
S1130A800FBE0F901F90189584B5826084BD85B504
S1130A90856085BD83E087BDEEE6F0E080818260FD
S1130AA0808347982B983F9A239AE8E6F0E0808168
S1130AB086608083EDE6F0E0808180688083ECE6E8
S1130AC0F0E08081886080837894089599279093DA
S1130AD025018093240187B1806787B908959927F8
S1130AE0909323018093220184B1806E84B9089588
S1130AF090933101809330010895409130015091D9
S1130B00310120912E0130912F0181E042175307CA
S1130B1009F480E0089590932F0180932E010895A5
S1130B2090932D0180932C01089540912C015091B4
S1130B302D0120912A0130912B0181E042175307A6
S1130B4009F480E0089580912C0190912D0108957D
S1110B5090932B0180932A010895F894FFCF0F
S1130B5E000005000700050007000500070005005A
S1130B6E07000000000000004C046009100EF21291
S1090B7E7017640064001E
S9030000FC
