:100000000C943E000C945B000C945B000C945B0021
:100010000C945B000C9414010C945B000C945B003A
:100020000C945B000C945D000C945B000C945B00E2
:100030000C945B000C945B000C945B000C945B00D4
:100040000C94CF000C945B000C945B000C945B0050
:100050000C945B000C945B000C945B000C945B00B4
:100060000C945B000C945B000C945B000C945B00A4
:100070000C945B000C945B000C945B0011241FBE7D
:10008000CFEFD8E0DEBFCDBF11E0A0E0B1E0E2E508
:10009000F3E002C005900D92A230B107D9F721E03C
:1000A000A2E0B1E001C01D92AB30B207E1F70E94BF
:1000B00093000C94A7010C9400001F920F920FB6AE
:1000C0000F9211248F939F93809109018F5F8093EA
:1000D000090180910901811103C08BB18F708BB927
:1000E0009091090180910601981301C05F9A909147
:1000F000090180910801981301C05E9A909109014D
:1001000080910701981301C05D9A90910901809137
:100110000701981301C05C9A9F918F910F900FBEB9
:100120000F901F90189580E88AB986E990E00E94A8
:100130003F0188E99AE30E94620188E99AE30E94FC
:100140007A01789400E010E0C0E0D0E0CC24C394C1
:10015000D12CE12CF12C5F982097A9F45F9A01151E
:10016000110539F48E2D9F2D0E947A01CC2DDD2DA5
:10017000F2CF0E9475018C3291406CF78CE291E0D5
:100180000E947A01E8CFC130D10529F70E946701AA
:100190008111E1CF0C2D1D2DCE2DDF2DDCCF1F9237
:1001A0000F920FB60F9211242F933F938F939F932B
:1001B0002091040130910501809102019091030189
:1001C000281739077CF49BB180E189278BB95B9AAA
:1001D000809104019091050101969093050180930F
:1001E000040119C0209104013091050180910201A0
:1001F000909103018217930774F49BB180E18927E2
:100200008BB95B98809104019091050101979093BF
:100210000501809304019F918F913F912F910F9041
:100220000FBE0F901F9018951F920F920FB60F924E
:1002300011248F931B9908C010920501109204019C
:100240008BB180588BB905C01C9903C08BB1805805
:100250008BB98F910F900FBE0F901F90189590E063
:100260009093010180930001609100017091010160
:1002700089E09DE30E947F01615067BD089594B5B8
:10028000926094BD95B5956095BDEEE6F0E09081E5
:10029000926090830E942F018AB18C618AB92C9858
:1002A0002B98249A239AE8E6F0E08081826080838C
:1002B000ECE6F0E0808180618083808188608083CB
:1002C00078940895909305018093040108954091D6
:1002D000040150910501209102013091030181E058
:1002E0004217530709F480E008958091040190912A
:1002F000050108959093030180930201089597FBEF
:10030000072E16F4009407D077FD09D00E949301C0
:1003100007FC05D03EF4909581959F4F0895709508
:1003200061957F4F0895AA1BBB1B51E107C0AA1F0F
:10033000BB1FA617B70710F0A61BB70B881F991F86
:100340005A95A9F780959095BC01CD010895F89430
:02035000FFCFDD
:02035200640045
:00000001FF
