S01F000050726F6965637420504D202D204D69786F6C6F676973742E73726563D6
S11300000C943E000C945B000C945B000C945B001D
S11300100C945B000C9476050C9486050C94650492
S11300200C945B000C945D000C945B000C945B00DE
S11300300C945B000C945B000C945B000C945B00D0
S11300400C94BA040C945B000C945B000C945B005D
S11300500C945B000C945B000C945B000C945B00B0
S11300600C945B000C945B000C945B000C945B00A0
S11300700C945B000C945B000C945B0011241FBE79
S1130080CFEFD8E0DEBFCDBF11E0A0E0B1E0E2E009
S1130090FCE002C005900D92A632B107D9F727E023
S11300A0A6E2B1E001C01D92AD36B207E1F70E94AD
S11300B013030C94FF050C9400001F920F920FB6CB
S11300C00F9211248F939F93809139018F5F8093B6
S11300D0390180913901811103C088B1887F88B9C1
S11300E09091390180913601981301C0409A909102
S11300F0390180913801981301C0419A90913901D6
S113010080913701981301C0429A9F918F910F906B
S11301100FBE0F901F901895E1EBF0E08081816095
S11301208083E0EBF0E08081826080838CE78093C1
S1130130B300E0E7F0E0808182608083789487B147
S1130140876087B9089580958093360160956093A0
S1130150380140954093370108954F925F926F9212
S11301607F928F929F92AF92BF92CF92DF92EF9243
S1130170FF920F931F93A6E1B1E04D905C9011970D
S1130180052C000C660877084092CE015092CF01EE
S11301906092D0017092D1011092CD0148EF5AE2E1
S11301A060E070E04093D7015093D8016093D90187
S11301B07093DA0181E08093D6011896CD90DC909B
S11301C019970D2C000CEE08FF08C092E001D092A4
S11301D0E101E092E201F092E3011092DF01409329
S11301E0E9015093EA016093EB017093EC01809371
S11301F0E80108EB1BE020E030E00093F2011093EB
S1130200F3012093F4013093F5011092F10140922F
S11302105E0250925F0260926002709261021092DC
S11302205D02409367025093680260936902709381
S11302306A0280936602C0927002D0927102E092C8
S11302407202F092730210926F02409379025093FB
S11302507A0260937B0270937C0280937802C0924E
S11302608202D0928302E0928402F092850292E0AC
S11302709093810240938B0250938C0260938D0281
S113028070938E0280938A020093940210939502D5
S113029020939602309397021092930216968D90B3
S11302A09C901797092C000CAA08BB088092EE02B8
S11302B09092EF02A092F002B092F1021092ED023D
S11302C04093F7025093F8026093F9027093FA0294
S11302D08093F602C0920003D0920103E0920203DD
S11302E0F09203031092FF024093090350930A0310
S11302F060930B0370930C03809308030093120321
S113030010931303209314033093150310921103D5
S113031040927E0350927F03609280037092810327
S113032010927D034093870350938803609389035D
S113033070938A0380938603C0929003D0929103B2
S1130340E0929203F092930310928F0340939903E7
S113035050939A0360939B0370939C038093980338
S1130360C092A203D092A303E092A403F092A50347
S11303704093AB035093AC036093AD037093AE030F
S11303808093AA030093B4031093B5032093B60398
S11303903093B7031092B3031496ED91FC91159723
S11303A02F01FF0F6608770840920E0450920F0445
S11303B0609210047092110410920D04409317047B
S11303C0509318046093190470931A0480931604CC
S11303D01A96CD90DC901B970D2C000CEE08FF08AC
S11303E0C0922004D0922104E0922204F0922304CB
S11303F010921F044093290450932A0460932B0401
S113040070932C04809328040093320410933304D3
S113041020933404309335041092310440929E04A6
S113042050929F046092A0047092A10410929D04C3
S11304304093A7045093A8046093A9047093AA045A
S11304408093A604C092B004D092B104E092B204A6
S1130450F092B3041092AF044093B9045093BA04D9
S11304606093BB047093BC048093B804C092C2042C
S1130470D092C304E092C404F092C5044093CB0428
S11304805093CC046093CD047093CE048093CA043B
S11304900093D4041093D5042093D6043093D70446
S11304A01092D30440922E0550922F05609230058D
S11304B07092310510922D054093370550933805FD
S11304C06093390570933A0580933605C0924005D0
S11304D0D0924105E0924205F092430510923F0507
S11304E04093490550934A0560934B0570934C051E
S11304F080934805009352051093530520935405A7
S113050030935505109251054092BE055092BF0597
S11305106092C0057092C1051092BD054093C70555
S11305205093C8056093C9057093CA058093C605A6
S1130530C092D005D092D105E092D205F092D305B5
S11305401092CF054093D9055093DA056093DB05EB
S11305507093DC058093D805C092E205D092E30540
S1130560E092E405F092E5054093EB055093EC0529
S11305706093ED057093EE058093EA050093F4050E
S11305801093F5052093F6053093F7051092F305C3
S113059080924E0690924F06A0925006B092510659
S11305A010924D064093570650935806609359068F
S11305B070935A06809356064092600650926106E4
S11305C0609262067092630610925F064093690619
S11305D050936A0660936B0670936C06809368066A
S11305E0C0927206D0927306E0927406F092750679
S11305F01092710600937B0610937C0620937D066F
S113060030937E0610927A061F910F91FF90EF901F
S1130610DF90CF90BF90AF909F908F907F906F901E
S11306205F904F9008950E94960583E090E00E94A9
S1130630B80588E99AE30E94CA0588E99AE30E940A
S1130640DD0582E090E00E94C10580E090E00E9418
S1130650E20580E090E00E94FA050E948C000E946E
S113066098040E94AD00579A7894FF24FA9400E00D
S113067010E0912CE12CA12CB12CC0E0D0E0662438
S11306806394712C0F2EF0E98F2EF02D68942224A0
S113069022F8312C6894442441F8512C02C0C0E063
S11306A0D0E05F98C330D10509F4FFC0112309F4E9
S11306B0F6C0F11004C011500F5F21F40FC00023E5
S11306C009F4F0C0111103C00150F39410E0FF20AD
S11306D029F0011103C01F5FFA9400E08FE193E059
S11306E00197F1F700C000004F2D50E0602F70E03B
S11306F0812F90E00E94A300209709F095C0A114D7
S1130700B10459F480E090E00E94DD0580E090E0BF
S11307100E94FA05C62DD72DC4CF20913B013091FC
S11307203C012115310599F40E94A904882309F498
S1130730B8CF90E090933C0180933B01880F991FC0
S1130740FC01E050FF4F90805F9AE12CAACFE9149E
S113075009F464C0CE2CD12CF601EE0FFF1FEE0F6E
S1130760FF1FEE0FFF1FEC0DFD1D829EC001839E37
S1130770900D1124E80FF91FE35CFE4F8081811175
S113078019C0F601EE0FFF1FEE0FFF1FEE0FFF1F44
S1130790EC0DFD1D829EC001839E900D1124E80F77
S11307A0F91FE35CFE4F818192810E94DD05C42D17
S11307B0D52D32C0813061F540E050E060E070E05A
S11307C08FEF90E00E94A30080913B0190913C0147
S11307D09601220F331F220F331F220F331FC20E25
S11307E0D31E889EF001899EF00D1124C6018E0F40
S11307F09F1FFC01E35CFE4F818192810E94FA05F8
S1130800F12C00E01FEF23E0C22F80E0D82F04C0BA
S1130810823011F4C22DD32DE39443CF10923C01C6
S113082010923B019E2C3DCFC130D10551F45F9A0B
S11308300E94CF05811135CFA62CB72CC0E0D0E0A3
S113084030CFC230D105D9F40E94CF05811129CF10
S1130850C0E0D0E026CF0E94F505181619060CF06A
S11308601ECF8FEF91E12AE7815090402040E1F7BD
S113087000C0000080E090E00E94FA0512CFC4306E
S1130880D10509F00ECF8FEF97EA21E68150904011
S11308902040E1F700C00000C0E0D0E002CF011129
S11308A013CF10C0F11017CF19CF4F2D50E0602F88
S11308B070E0812F90E00E94A3000E94E70581115F
S11308C0F0CEC9CFF11007CF09CF1F920F920FB608
S11308D00F9211242F933F934F935F938F939F9382
S11308E021E030E0309329012093280159B149B126
S11308F039B129B1852F817090E04270840F911D28
S11309003470830F911D2870820F911D90932701DD
S1130910809326018BB180588BB99F918F915F9101
S11309204F913F912F910F900FBE0F901F901895EC
S11309308AB1807E8AB98BB18F618BB9E8E6F0E029
S1130940808188608083E3E7F0E080818061808338
S113095008958091280190912901892B49F01092E2
S11309602901109228018091260190912701089570
S113097080E008951F920F920FB60F9211242F93C7
S11309803F938F939F938091340190913501019609
S113099090933501809334012091340130913501D5
S11309A080912401909125012817390721F4109290
S11309B03501109234018091340190913501892BD5
S11309C0B9F5209130013091310180912E0190913F
S11309D02F012817390784F4469898B180E28927B3
S11309E088B9449A80913001909131010196909395
S11309F03101809330011CC02091300130913101CC
S1130A0080912E0190912F018217930784F44698C8
S1130A1098B180E2892788B94498809130019091F7
S1130A2031010197909331018093300101C0469ABE
S1130A308091320190913301019690933301809318
S1130A403201209132013091330180912201909141
S1130A5023012817390721F410923301109232012F
S1130A608091320190913301892BB9F520912C01A9
S1130A7030912D0180912A0190912B01281739077B
S1130A8084F42D9895B180E4892785B92F9A8091B3
S1130A902C0190912D01019690932D0180932C01AE
S1130AA01CC020912C0130912D0180912A0190913C
S1130AB02B018217930784F42D9895B180E489273C
S1130AC085B92F9880912C0190912D0101979093D5
S1130AD02D0180932C0101C02D9A9F918F913F91FC
S1130AE02F910F900FBE0F901F9018951F920F9289
S1130AF00FB60F9211241B9904C010923101109269
S1130B0030010F900FBE0F901F9018951F920F92F7
S1130B100FB60F921124379904C010922D01109230
S1130B202C010F900FBE0F901F90189584B5826012
S1130B3084BD85B5856085BD83E087BDEEE6F0E0C4
S1130B4080818260808347982B983F9A239AE8E6B5
S1130B50F0E0808186608083EDE6F0E0808180684B
S1130B608083ECE6F0E08081886080837894089547
S1130B709927909325018093240187B1806787B9D1
S1130B8008959927909323018093220184B1806E64
S1130B9084B9089590933101809330010895409170
S1130BA030015091310120912E0130912F0181E0CB
S1130BB04217530709F480E0089590932F0180931E
S1130BC02E01089590932D0180932C010895409156
S1130BD02C0150912D0120912A0130912B0181E0AB
S1130BE04217530709F480E0089580912C019091F5
S1130BF02D01089590932B0180932A010895F89470
S1050C00FFCF20
S1130C0200000500070005000700050007000500B5
S1130C1207000600000000004C046009100EF212E6
S1090C2270176400640079
S9030000FC
