S01F000050726F6965637420504D202D204D69786F6C6F676973742E73726563D6
S11300000C943E000C9450000C9450000C9450003E
S11300100C9450000C9450000C9450000C9450001C
S11300200C9450000C9460000C9450000C945200FA
S11300300C9450000C9450000C9450000C945000FC
S11300400C9450000C9450000C9450000C945000EC
S11300500C9450000C9450000C9450000C945000DC
S11300600C9450000C9450000C9450000C945000CC
S11300700C9450000C9450000C94500011241FBE9A
S1130080CFEFD8E0DEBFCDBF21E0A0E0B1E001C0FA
S11300901D92A530B207E1F70E9496000C94C800A7
S11300A00C9400001F920F920FB60F9211248F939D
S11300B08BB11BB88F910F900FBE0F901F901895A6
S11300C01F920F920FB60F9211248F939F938091DA
S11300D003018F5F8093030180910301811103C0A9
S11300E085B18F7085B990910301809100019813B7
S11300F001C02F9A9091030180910201981301C0CD
S11301002E9A9091030180910101981301C02D9AB8
S11301109091030180910101981301C02C9A9F9141
S11301208F910F900FBE0F901F901895109203019E
S11301308FEF84B98AB9E0E8F0E080818268808337
S1130140E1E8F0E080818A6180838FE39CE9909309
S1130150870080938600E8E8F0E02FEB32E18FEA35
S113016094E0318320834FEF53E264EF41505040D9
S11301706040E1F700C00000918380834FEF53E2B9
S113018064EF415050406040E1F700C00000E9CF07
S1070190F894FFCF0D
S9030000FC
